{
  "address": "0x24D49B3BBB0a24798f857747e180d36108F2A5af",
  "abi": [
    {
      "inputs": [
        {
          "internalType": "address",
          "name": "nftAddress",
          "type": "address"
        },
        {
          "internalType": "uint256",
          "name": "tokenId",
          "type": "uint256"
        }
      ],
      "name": "NftMarketplace__IsListed",
      "type": "error"
    },
    {
      "inputs": [
        {
          "internalType": "address",
          "name": "nftAddress",
          "type": "address"
        },
        {
          "internalType": "uint256",
          "name": "tokenId",
          "type": "uint256"
        }
      ],
      "name": "NftMarketplace__IsNotListed",
      "type": "error"
    },
    {
      "inputs": [],
      "name": "NftMarketplace__IsNotOwner",
      "type": "error"
    },
    {
      "inputs": [],
      "name": "NftMarketplace__NotApproved",
      "type": "error"
    },
    {
      "inputs": [
        {
          "internalType": "address",
          "name": "nftAddress",
          "type": "address"
        },
        {
          "internalType": "uint256",
          "name": "tokenId",
          "type": "uint256"
        },
        {
          "internalType": "uint256",
          "name": "price",
          "type": "uint256"
        }
      ],
      "name": "NftMarketplace__PaymentIsNotEnough",
      "type": "error"
    },
    {
      "inputs": [],
      "name": "NftMarketplace__PriceInvalid",
      "type": "error"
    },
    {
      "inputs": [],
      "name": "NftMarketplace__WithdrawExcess",
      "type": "error"
    },
    {
      "inputs": [],
      "name": "NftMarketplace__WithdrawFailed",
      "type": "error"
    },
    {
      "anonymous": false,
      "inputs": [
        {
          "indexed": true,
          "internalType": "address",
          "name": "buyer",
          "type": "address"
        },
        {
          "indexed": true,
          "internalType": "address",
          "name": "nftAddress",
          "type": "address"
        },
        {
          "indexed": true,
          "internalType": "uint256",
          "name": "tokenId",
          "type": "uint256"
        },
        {
          "indexed": false,
          "internalType": "uint256",
          "name": "price",
          "type": "uint256"
        }
      ],
      "name": "ItemBought",
      "type": "event"
    },
    {
      "anonymous": false,
      "inputs": [
        {
          "indexed": true,
          "internalType": "address",
          "name": "seller",
          "type": "address"
        },
        {
          "indexed": true,
          "internalType": "address",
          "name": "nftAddress",
          "type": "address"
        },
        {
          "indexed": true,
          "internalType": "uint256",
          "name": "tokenId",
          "type": "uint256"
        }
      ],
      "name": "ItemCanceled",
      "type": "event"
    },
    {
      "anonymous": false,
      "inputs": [
        {
          "indexed": true,
          "internalType": "address",
          "name": "seller",
          "type": "address"
        },
        {
          "indexed": true,
          "internalType": "address",
          "name": "nftAddress",
          "type": "address"
        },
        {
          "indexed": true,
          "internalType": "uint256",
          "name": "tokenId",
          "type": "uint256"
        },
        {
          "indexed": false,
          "internalType": "uint256",
          "name": "price",
          "type": "uint256"
        }
      ],
      "name": "ItemListed",
      "type": "event"
    },
    {
      "inputs": [
        {
          "internalType": "address",
          "name": "nftAddress",
          "type": "address"
        },
        {
          "internalType": "uint256",
          "name": "tokenId",
          "type": "uint256"
        }
      ],
      "name": "buyItem",
      "outputs": [],
      "stateMutability": "payable",
      "type": "function"
    },
    {
      "inputs": [
        {
          "internalType": "address",
          "name": "nftAddress",
          "type": "address"
        },
        {
          "internalType": "uint256",
          "name": "tokenId",
          "type": "uint256"
        }
      ],
      "name": "cancelList",
      "outputs": [],
      "stateMutability": "nonpayable",
      "type": "function"
    },
    {
      "inputs": [
        {
          "internalType": "address",
          "name": "nftAddress",
          "type": "address"
        },
        {
          "internalType": "uint256",
          "name": "tokenId",
          "type": "uint256"
        }
      ],
      "name": "getListing",
      "outputs": [
        {
          "components": [
            {
              "internalType": "address",
              "name": "seller",
              "type": "address"
            },
            {
              "internalType": "uint256",
              "name": "price",
              "type": "uint256"
            }
          ],
          "internalType": "struct NftMarketplace.Listing",
          "name": "",
          "type": "tuple"
        }
      ],
      "stateMutability": "view",
      "type": "function"
    },
    {
      "inputs": [
        {
          "internalType": "address",
          "name": "seller",
          "type": "address"
        }
      ],
      "name": "getProceeds",
      "outputs": [
        {
          "internalType": "uint256",
          "name": "",
          "type": "uint256"
        }
      ],
      "stateMutability": "view",
      "type": "function"
    },
    {
      "inputs": [
        {
          "internalType": "address",
          "name": "nftAddress",
          "type": "address"
        },
        {
          "internalType": "uint256",
          "name": "tokenId",
          "type": "uint256"
        },
        {
          "internalType": "uint256",
          "name": "price",
          "type": "uint256"
        }
      ],
      "name": "listItem",
      "outputs": [],
      "stateMutability": "nonpayable",
      "type": "function"
    },
    {
      "inputs": [
        {
          "internalType": "address",
          "name": "nftAddress",
          "type": "address"
        },
        {
          "internalType": "uint256",
          "name": "tokenId",
          "type": "uint256"
        },
        {
          "internalType": "uint256",
          "name": "newPrice",
          "type": "uint256"
        }
      ],
      "name": "updateListing",
      "outputs": [],
      "stateMutability": "nonpayable",
      "type": "function"
    },
    {
      "inputs": [
        {
          "internalType": "uint256",
          "name": "amount",
          "type": "uint256"
        }
      ],
      "name": "withdraw",
      "outputs": [],
      "stateMutability": "payable",
      "type": "function"
    }
  ],
  "transactionHash": "0xab5d1c32f9a1d0233faf3b7075a1b606625bdf447672775a4bae04e7e103e72f",
  "args": [],
  "numDeployments": 1,
  "solcInputHash": "5639cf5c1d4884e3320a634ed65e8532",
  "bytecode": "0x608060405234801561001057600080fd5b506001600081905550611896806100286000396000f3fe6080604052600436106100705760003560e01c806388700d1c1161004e57806388700d1c146100f757806389bfd38f146101345780639f37092a1461015d578063f772adf11461017957610070565b80631af71a8e146100755780632e1a7d4d1461009e57806330cfeda9146100ba575b600080fd5b34801561008157600080fd5b5061009c600480360381019061009791906113c7565b6101a2565b005b6100b860048036038101906100b39190611407565b610482565b005b3480156100c657600080fd5b506100e160048036038101906100dc9190611434565b610684565b6040516100ee9190611470565b60405180910390f35b34801561010357600080fd5b5061011e600480360381019061011991906113c7565b6106cd565b60405161012b91906114d8565b60405180910390f35b34801561014057600080fd5b5061015b600480360381019061015691906114f3565b610798565b005b610177600480360381019061017291906113c7565b610bf0565b005b34801561018557600080fd5b506101a0600480360381019061019b91906114f3565b610fe3565b005b818133600083905060008173ffffffffffffffffffffffffffffffffffffffff16636352211e856040518263ffffffff1660e01b81526004016101e59190611470565b602060405180830381865afa158015610202573d6000803e3d6000fd5b505050506040513d601f19601f82011682018060405250810190610226919061155b565b90508073ffffffffffffffffffffffffffffffffffffffff168373ffffffffffffffffffffffffffffffffffffffff161461028d576040517fdc3c00b300000000000000000000000000000000000000000000000000000000815260040160405180910390fd5b86866000600160008473ffffffffffffffffffffffffffffffffffffffff1673ffffffffffffffffffffffffffffffffffffffff16815260200190815260200160002060008381526020019081526020016000206040518060400160405290816000820160009054906101000a900473ffffffffffffffffffffffffffffffffffffffff1673ffffffffffffffffffffffffffffffffffffffff1673ffffffffffffffffffffffffffffffffffffffff168152602001600182015481525050905060008160200151116103995782826040517fea0dee03000000000000000000000000000000000000000000000000000000008152600401610390929190611597565b60405180910390fd5b600160008b73ffffffffffffffffffffffffffffffffffffffff1673ffffffffffffffffffffffffffffffffffffffff16815260200190815260200160002060008a8152602001908152602001600020600080820160006101000a81549073ffffffffffffffffffffffffffffffffffffffff021916905560018201600090555050888a73ffffffffffffffffffffffffffffffffffffffff163373ffffffffffffffffffffffffffffffffffffffff167f9ba1a3cb55ce8d63d072a886f94d2a744f50cddf82128e897d0661f5ec62315860405160405180910390a450505050505050505050565b600081116104c5576040517f08c379a00000000000000000000000000000000000000000000000000000000081526004016104bc9061161d565b60405180910390fd5b6000600260003373ffffffffffffffffffffffffffffffffffffffff1673ffffffffffffffffffffffffffffffffffffffff1681526020019081526020016000205490506000811161054c576040517f08c379a000000000000000000000000000000000000000000000000000000000815260040161054390611689565b60405180910390fd5b80821115610586576040517f4f872e7a00000000000000000000000000000000000000000000000000000000815260040160405180910390fd5b81600260003373ffffffffffffffffffffffffffffffffffffffff1673ffffffffffffffffffffffffffffffffffffffff16815260200190815260200160002060008282546105d591906116d8565b9250508190555060003373ffffffffffffffffffffffffffffffffffffffff16836040516106029061173d565b60006040518083038185875af1925050503d806000811461063f576040519150601f19603f3d011682016040523d82523d6000602084013e610644565b606091505b505090508061067f576040517f1085fc1d00000000000000000000000000000000000000000000000000000000815260040160405180910390fd5b505050565b6000600260008373ffffffffffffffffffffffffffffffffffffffff1673ffffffffffffffffffffffffffffffffffffffff168152602001908152602001600020549050919050565b6106d56112fe565b600160008473ffffffffffffffffffffffffffffffffffffffff1673ffffffffffffffffffffffffffffffffffffffff16815260200190815260200160002060008381526020019081526020016000206040518060400160405290816000820160009054906101000a900473ffffffffffffffffffffffffffffffffffffffff1673ffffffffffffffffffffffffffffffffffffffff1673ffffffffffffffffffffffffffffffffffffffff168152602001600182015481525050905092915050565b828233600083905060008173ffffffffffffffffffffffffffffffffffffffff16636352211e856040518263ffffffff1660e01b81526004016107db9190611470565b602060405180830381865afa1580156107f8573d6000803e3d6000fd5b505050506040513d601f19601f8201168201806040525081019061081c919061155b565b90508073ffffffffffffffffffffffffffffffffffffffff168373ffffffffffffffffffffffffffffffffffffffff1614610883576040517fdc3c00b300000000000000000000000000000000000000000000000000000000815260040160405180910390fd5b87876000600160008473ffffffffffffffffffffffffffffffffffffffff1673ffffffffffffffffffffffffffffffffffffffff16815260200190815260200160002060008381526020019081526020016000206040518060400160405290816000820160009054906101000a900473ffffffffffffffffffffffffffffffffffffffff1673ffffffffffffffffffffffffffffffffffffffff1673ffffffffffffffffffffffffffffffffffffffff16815260200160018201548152505090506000816020015111156109905782826040517f3ab0e1b8000000000000000000000000000000000000000000000000000000008152600401610987929190611597565b60405180910390fd5b600089116109ca576040517fb6add8ef00000000000000000000000000000000000000000000000000000000815260040160405180910390fd5b60008b90503073ffffffffffffffffffffffffffffffffffffffff168173ffffffffffffffffffffffffffffffffffffffff1663081812fc8d6040518263ffffffff1660e01b8152600401610a1f9190611470565b602060405180830381865afa158015610a3c573d6000803e3d6000fd5b505050506040513d601f19601f82011682018060405250810190610a60919061155b565b73ffffffffffffffffffffffffffffffffffffffff1614610aad576040517f8189633e00000000000000000000000000000000000000000000000000000000815260040160405180910390fd5b60405180604001604052803373ffffffffffffffffffffffffffffffffffffffff1681526020018b815250600160008e73ffffffffffffffffffffffffffffffffffffffff1673ffffffffffffffffffffffffffffffffffffffff16815260200190815260200160002060008d815260200190815260200160002060008201518160000160006101000a81548173ffffffffffffffffffffffffffffffffffffffff021916908373ffffffffffffffffffffffffffffffffffffffff160217905550602082015181600101559050508a8c73ffffffffffffffffffffffffffffffffffffffff163373ffffffffffffffffffffffffffffffffffffffff167fd547e933094f12a9159076970143ebe73234e64480317844b0dcb36117116de48d604051610bda9190611470565b60405180910390a4505050505050505050505050565b610bf86112a5565b81816000600160008473ffffffffffffffffffffffffffffffffffffffff1673ffffffffffffffffffffffffffffffffffffffff16815260200190815260200160002060008381526020019081526020016000206040518060400160405290816000820160009054906101000a900473ffffffffffffffffffffffffffffffffffffffff1673ffffffffffffffffffffffffffffffffffffffff1673ffffffffffffffffffffffffffffffffffffffff16815260200160018201548152505090506000816020015111610d045782826040517fea0dee03000000000000000000000000000000000000000000000000000000008152600401610cfb929190611597565b60405180910390fd5b60008590506000600160008873ffffffffffffffffffffffffffffffffffffffff1673ffffffffffffffffffffffffffffffffffffffff16815260200190815260200160002060008781526020019081526020016000206040518060400160405290816000820160009054906101000a900473ffffffffffffffffffffffffffffffffffffffff1673ffffffffffffffffffffffffffffffffffffffff1673ffffffffffffffffffffffffffffffffffffffff16815260200160018201548152505090508060200151341015610e1957868682602001516040517fa90eddec000000000000000000000000000000000000000000000000000000008152600401610e1093929190611752565b60405180910390fd5b3460026000836000015173ffffffffffffffffffffffffffffffffffffffff1673ffffffffffffffffffffffffffffffffffffffff1681526020019081526020016000206000828254610e6c9190611789565b92505081905550600160008873ffffffffffffffffffffffffffffffffffffffff1673ffffffffffffffffffffffffffffffffffffffff1681526020019081526020016000206000878152602001908152602001600020600080820160006101000a81549073ffffffffffffffffffffffffffffffffffffffff0219169055600182016000905550508173ffffffffffffffffffffffffffffffffffffffff166342842e0e826000015133896040518463ffffffff1660e01b8152600401610f36939291906117bd565b600060405180830381600087803b158015610f5057600080fd5b505af1158015610f64573d6000803e3d6000fd5b50505050858773ffffffffffffffffffffffffffffffffffffffff163373ffffffffffffffffffffffffffffffffffffffff167f263223b1dd81e51054a4e6f791d45a4a1ddb4aadcd93a2dfd892615c3fdac1878460200151604051610fca9190611470565b60405180910390a45050505050610fdf6112f4565b5050565b828233600083905060008173ffffffffffffffffffffffffffffffffffffffff16636352211e856040518263ffffffff1660e01b81526004016110269190611470565b602060405180830381865afa158015611043573d6000803e3d6000fd5b505050506040513d601f19601f82011682018060405250810190611067919061155b565b90508073ffffffffffffffffffffffffffffffffffffffff168373ffffffffffffffffffffffffffffffffffffffff16146110ce576040517fdc3c00b300000000000000000000000000000000000000000000000000000000815260040160405180910390fd5b87876000600160008473ffffffffffffffffffffffffffffffffffffffff1673ffffffffffffffffffffffffffffffffffffffff16815260200190815260200160002060008381526020019081526020016000206040518060400160405290816000820160009054906101000a900473ffffffffffffffffffffffffffffffffffffffff1673ffffffffffffffffffffffffffffffffffffffff1673ffffffffffffffffffffffffffffffffffffffff168152602001600182015481525050905060008160200151116111da5782826040517fea0dee030000000000000000000000000000000000000000000000000000000081526004016111d1929190611597565b60405180910390fd5b88600160008d73ffffffffffffffffffffffffffffffffffffffff1673ffffffffffffffffffffffffffffffffffffffff16815260200190815260200160002060008c815260200190815260200160002060010181905550898b73ffffffffffffffffffffffffffffffffffffffff163373ffffffffffffffffffffffffffffffffffffffff167fd547e933094f12a9159076970143ebe73234e64480317844b0dcb36117116de48c6040516112909190611470565b60405180910390a45050505050505050505050565b6002600054036112ea576040517f08c379a00000000000000000000000000000000000000000000000000000000081526004016112e190611840565b60405180910390fd5b6002600081905550565b6001600081905550565b6040518060400160405280600073ffffffffffffffffffffffffffffffffffffffff168152602001600081525090565b600080fd5b600073ffffffffffffffffffffffffffffffffffffffff82169050919050565b600061135e82611333565b9050919050565b61136e81611353565b811461137957600080fd5b50565b60008135905061138b81611365565b92915050565b6000819050919050565b6113a481611391565b81146113af57600080fd5b50565b6000813590506113c18161139b565b92915050565b600080604083850312156113de576113dd61132e565b5b60006113ec8582860161137c565b92505060206113fd858286016113b2565b9150509250929050565b60006020828403121561141d5761141c61132e565b5b600061142b848285016113b2565b91505092915050565b60006020828403121561144a5761144961132e565b5b60006114588482850161137c565b91505092915050565b61146a81611391565b82525050565b60006020820190506114856000830184611461565b92915050565b61149481611353565b82525050565b6114a381611391565b82525050565b6040820160008201516114bf600085018261148b565b5060208201516114d2602085018261149a565b50505050565b60006040820190506114ed60008301846114a9565b92915050565b60008060006060848603121561150c5761150b61132e565b5b600061151a8682870161137c565b935050602061152b868287016113b2565b925050604061153c868287016113b2565b9150509250925092565b60008151905061155581611365565b92915050565b6000602082840312156115715761157061132e565b5b600061157f84828501611546565b91505092915050565b61159181611353565b82525050565b60006040820190506115ac6000830185611588565b6115b96020830184611461565b9392505050565b600082825260208201905092915050565b7f616d6f756e74206c657373207468616e20300000000000000000000000000000600082015250565b60006116076012836115c0565b9150611612826115d1565b602082019050919050565b60006020820190508181036000830152611636816115fa565b9050919050565b7f746f74616c206c657373207468616e2030000000000000000000000000000000600082015250565b60006116736011836115c0565b915061167e8261163d565b602082019050919050565b600060208201905081810360008301526116a281611666565b9050919050565b7f4e487b7100000000000000000000000000000000000000000000000000000000600052601160045260246000fd5b60006116e382611391565b91506116ee83611391565b9250828203905081811115611706576117056116a9565b5b92915050565b600081905092915050565b50565b600061172760008361170c565b915061173282611717565b600082019050919050565b60006117488261171a565b9150819050919050565b60006060820190506117676000830186611588565b6117746020830185611461565b6117816040830184611461565b949350505050565b600061179482611391565b915061179f83611391565b92508282019050808211156117b7576117b66116a9565b5b92915050565b60006060820190506117d26000830186611588565b6117df6020830185611588565b6117ec6040830184611461565b949350505050565b7f5265656e7472616e637947756172643a207265656e7472616e742063616c6c00600082015250565b600061182a601f836115c0565b9150611835826117f4565b602082019050919050565b600060208201905081810360008301526118598161181d565b905091905056fea26469706673582212205cedbdb1a6ec0e3f60ebddaaefd24d8667c2d6b92c0050a3b85f0963a230078164736f6c63430008120033",
  "devdoc": {
    "kind": "dev",
    "methods": {},
    "version": 1
  },
  "userdoc": {
    "kind": "user",
    "methods": {},
    "version": 1
  },
  "storageLayout": {
    "storage": [
      {
        "astId": 10,
        "contract": "contracts/NftMarketplace.sol:NftMarketplace",
        "label": "_status",
        "offset": 0,
        "slot": "0",
        "type": "t_uint256"
      },
      {
        "astId": 229,
        "contract": "contracts/NftMarketplace.sol:NftMarketplace",
        "label": "s_listings",
        "offset": 0,
        "slot": "1",
        "type": "t_mapping(t_address,t_mapping(t_uint256,t_struct(Listing)222_storage))"
      },
      {
        "astId": 233,
        "contract": "contracts/NftMarketplace.sol:NftMarketplace",
        "label": "s_proceeds",
        "offset": 0,
        "slot": "2",
        "type": "t_mapping(t_address,t_uint256)"
      }
    ],
    "types": {
      "t_address": {
        "encoding": "inplace",
        "label": "address",
        "numberOfBytes": "20"
      },
      "t_mapping(t_address,t_mapping(t_uint256,t_struct(Listing)222_storage))": {
        "encoding": "mapping",
        "key": "t_address",
        "label": "mapping(address => mapping(uint256 => struct NftMarketplace.Listing))",
        "numberOfBytes": "32",
        "value": "t_mapping(t_uint256,t_struct(Listing)222_storage)"
      },
      "t_mapping(t_address,t_uint256)": {
        "encoding": "mapping",
        "key": "t_address",
        "label": "mapping(address => uint256)",
        "numberOfBytes": "32",
        "value": "t_uint256"
      },
      "t_mapping(t_uint256,t_struct(Listing)222_storage)": {
        "encoding": "mapping",
        "key": "t_uint256",
        "label": "mapping(uint256 => struct NftMarketplace.Listing)",
        "numberOfBytes": "32",
        "value": "t_struct(Listing)222_storage"
      },
      "t_struct(Listing)222_storage": {
        "encoding": "inplace",
        "label": "struct NftMarketplace.Listing",
        "members": [
          {
            "astId": 219,
            "contract": "contracts/NftMarketplace.sol:NftMarketplace",
            "label": "seller",
            "offset": 0,
            "slot": "0",
            "type": "t_address"
          },
          {
            "astId": 221,
            "contract": "contracts/NftMarketplace.sol:NftMarketplace",
            "label": "price",
            "offset": 0,
            "slot": "1",
            "type": "t_uint256"
          }
        ],
        "numberOfBytes": "64"
      },
      "t_uint256": {
        "encoding": "inplace",
        "label": "uint256",
        "numberOfBytes": "32"
      }
    }
  }
}